{
  "contractName": "Election",
  "abi": [
    {
      "inputs": [],
      "payable": false,
      "stateMutability": "nonpayable",
      "type": "constructor"
    },
    {
      "anonymous": false,
      "inputs": [
        {
          "indexed": true,
          "internalType": "uint256",
          "name": "_candidateId",
          "type": "uint256"
        }
      ],
      "name": "votedEvent",
      "type": "event"
    },
    {
      "constant": true,
      "inputs": [
        {
          "internalType": "uint256",
          "name": "",
          "type": "uint256"
        }
      ],
      "name": "candidates",
      "outputs": [
        {
          "internalType": "uint256",
          "name": "id",
          "type": "uint256"
        },
        {
          "internalType": "uint256",
          "name": "voteCount",
          "type": "uint256"
        },
        {
          "internalType": "string",
          "name": "name",
          "type": "string"
        }
      ],
      "payable": false,
      "stateMutability": "view",
      "type": "function"
    },
    {
      "constant": true,
      "inputs": [],
      "name": "candidatesCount",
      "outputs": [
        {
          "internalType": "uint256",
          "name": "",
          "type": "uint256"
        }
      ],
      "payable": false,
      "stateMutability": "view",
      "type": "function"
    },
    {
      "constant": true,
      "inputs": [],
      "name": "time",
      "outputs": [
        {
          "internalType": "uint256",
          "name": "",
          "type": "uint256"
        }
      ],
      "payable": false,
      "stateMutability": "view",
      "type": "function"
    },
    {
      "constant": true,
      "inputs": [
        {
          "internalType": "address",
          "name": "",
          "type": "address"
        }
      ],
      "name": "voters",
      "outputs": [
        {
          "internalType": "bool",
          "name": "",
          "type": "bool"
        }
      ],
      "payable": false,
      "stateMutability": "view",
      "type": "function"
    },
    {
      "constant": false,
      "inputs": [
        {
          "internalType": "uint256",
          "name": "_candidateId",
          "type": "uint256"
        }
      ],
      "name": "vote",
      "outputs": [],
      "payable": false,
      "stateMutability": "nonpayable",
      "type": "function"
    },
    {
      "constant": false,
      "inputs": [
        {
          "internalType": "uint256",
          "name": "_time",
          "type": "uint256"
        }
      ],
      "name": "setTime",
      "outputs": [],
      "payable": false,
      "stateMutability": "nonpayable",
      "type": "function"
    }
  ],
  "bytecode": "0x608060405234801561001057600080fd5b506100556040518060400160405280600581526020017f426964656e0000000000000000000000000000000000000000000000000000008152506100b060201b60201c565b6100996040518060400160405280600581526020017f5472756d700000000000000000000000000000000000000000000000000000008152506100b060201b60201c565b6100ab6201518061012b60201b60201c565b6101da565b600260008154809291906001019190505550604051806060016040528060025481526020016000815260200182815250600080600254815260200190815260200160002060008201518160000155602082015181600101556040820151816002019080519060200190610124929190610135565b5090505050565b8060038190555050565b828054600181600116156101000203166002900490600052602060002090601f016020900481019282601f1061017657805160ff19168380011785556101a4565b828001600101855582156101a4579182015b828111156101a3578251825591602001919060010190610188565b5b5090506101b191906101b5565b5090565b6101d791905b808211156101d35760008160009055506001016101bb565b5090565b90565b61045b806101e96000396000f3fe608060405234801561001057600080fd5b50600436106100625760003560e01c80630121b93f1461006757806316ada547146100955780632d35a8a2146100b35780633477ee2e146100d15780633beb26c414610186578063a3ec138d146101b4575b600080fd5b6100936004803603602081101561007d57600080fd5b8101908080359060200190929190505050610210565b005b61009d61032e565b6040518082815260200191505060405180910390f35b6100bb610334565b6040518082815260200191505060405180910390f35b6100fd600480360360208110156100e757600080fd5b810190808035906020019092919050505061033a565b6040518084815260200183815260200180602001828103825283818151815260200191508051906020019080838360005b8381101561014957808201518184015260208101905061012e565b50505050905090810190601f1680156101765780820380516001836020036101000a031916815260200191505b5094505050505060405180910390f35b6101b26004803603602081101561019c57600080fd5b81019080803590602001909291905050506103fc565b005b6101f6600480360360208110156101ca57600080fd5b81019080803573ffffffffffffffffffffffffffffffffffffffff169060200190929190505050610406565b604051808215151515815260200191505060405180910390f35b600160003373ffffffffffffffffffffffffffffffffffffffff1673ffffffffffffffffffffffffffffffffffffffff16815260200190815260200160002060009054906101000a900460ff161561026757600080fd5b60008111801561027957506002548111155b61028257600080fd5b60018060003373ffffffffffffffffffffffffffffffffffffffff1673ffffffffffffffffffffffffffffffffffffffff16815260200190815260200160002060006101000a81548160ff02191690831515021790555060008082815260200190815260200160002060010160008154809291906001019190505550807ffff3c900d938d21d0990d786e819f29b8d05c1ef587b462b939609625b684b1660405160405180910390a250565b60035481565b60025481565b6000602052806000526040600020600091509050806000015490806001015490806002018054600181600116156101000203166002900480601f0160208091040260200160405190810160405280929190818152602001828054600181600116156101000203166002900480156103f25780601f106103c7576101008083540402835291602001916103f2565b820191906000526020600020905b8154815290600101906020018083116103d557829003601f168201915b5050505050905083565b8060038190555050565b60016020528060005260406000206000915054906101000a900460ff168156fea265627a7a723158207b432f6928d78e11ff629840f12dc870691995733e3e55464452a3930e7d0fb464736f6c63430005100032",
  "source": "pragma solidity ^0.5.16;\n\ncontract Election {\n\n\tstruct Candidate {\n\t\tuint id;\n\t\tuint voteCount;\n\t\tstring name;\n\t}\n\n\tmapping(uint => Candidate) public candidates;\n\tmapping(address => bool) public voters;\n\n\tuint public candidatesCount;\n\tuint public time;\n\n\tevent votedEvent (\n\t\tuint indexed _candidateId\n\t);\n\n\tconstructor() public {\n    \taddCandidate(\"Biden\");\n    \taddCandidate(\"Trump\");\n    \tsetTime(1 days);\n  \t} \n\n  \tfunction addCandidate(string memory _name) private {\n  \t\tcandidatesCount ++;\n  \t\tcandidates[candidatesCount] = Candidate(candidatesCount, 0, _name);\n  \t}\n\n  \tfunction vote(uint _candidateId) public {\n  \t\trequire(!voters[msg.sender]);\n  \t\trequire(_candidateId > 0 && _candidateId <= candidatesCount);\n  \t\tvoters[msg.sender] = true;\n  \t\tcandidates[_candidateId].voteCount ++;\n\n  \t\temit votedEvent(_candidateId);\n  \t}\n\n  \tfunction setTime(uint _time) public {\n  \t\ttime = _time;\n  \t}\n\n}\n",
  "sourcePath": "/Users/alejandrosusillo/Documents/Blockchain/election/contracts/Election.sol",
  "compiler": {
    "name": "solc",
    "version": "0.5.16+commit.9c3226ce.Emscripten.clang"
  },
  "schemaVersion": "3.0.23",
  "updatedAt": "2020-05-16T16:43:23.004Z",
  "networkType": "ethereum",
  "devdoc": {
    "methods": {}
  },
  "userdoc": {
    "methods": {}
  }
}